{
  "address": "0xDc64a140Aa3E981100a9becA4E685f962f0cF6C9",
  "abi": [
    {
      "inputs": [],
      "name": "count",
      "outputs": [
        {
          "internalType": "uint256",
          "name": "",
          "type": "uint256"
        }
      ],
      "stateMutability": "view",
      "type": "function"
    },
    {
      "inputs": [],
      "name": "inc",
      "outputs": [],
      "stateMutability": "nonpayable",
      "type": "function"
    }
  ],
  "transactionHash": "0xeaf3b78e820ee1541e8c93a796735b4dae428e7afb83731c607833f3287e40f6",
  "args": [],
  "numDeployments": 1,
  "solcInputHash": "1a6b600fbdf1e292a35fb5d587ae864e",
  "bytecode": "0x608060405234801561001057600080fd5b50610c47806100206000396000f3fe608060405234801561001057600080fd5b50600436106100365760003560e01c806306661abd1461003b578063371303c014610059575b600080fd5b610043610063565b6040516100509190610666565b60405180910390f35b610061610069565b005b60005481565b610072336100ef565b6100b1576040517f08c379a00000000000000000000000000000000000000000000000000000000081526004016100a8906106de565b60405180910390fd5b60008081546100bf9061072d565b919050819055506100ed73eeeeeeeeeeeeeeeeeeeeeeeeeeeeeeeeeeeeeeee6100e6610199565b60646101a8565b565b6000610144461480610102575061011846145b61014e5773abcc9b596420a9e9172fd5938620e265a0f9df9273ffffffffffffffffffffffffffffffffffffffff168273ffffffffffffffffffffffffffffffffffffffff1614610192565b73b16a1dbe755f992636705fdbb3a8678a657eb3ea73ffffffffffffffffffffffffffffffffffffffff168273ffffffffffffffffffffffffffffffffffffffff16145b9050919050565b60006101a361022f565b905090565b73eeeeeeeeeeeeeeeeeeeeeeeeeeeeeeeeeeeeeeee73ffffffffffffffffffffffffffffffffffffffff168373ffffffffffffffffffffffffffffffffffffffff161461021f5761021a82828573ffffffffffffffffffffffffffffffffffffffff1661023e9092919063ffffffff16565b61022a565b61022982826102c4565b5b505050565b6000601436033560601c905090565b6102bf8363a9059cbb60e01b848460405160240161025d9291906107b6565b604051602081830303815290604052907bffffffffffffffffffffffffffffffffffffffffffffffffffffffff19166020820180517bffffffffffffffffffffffffffffffffffffffffffffffffffffffff83818316178352505050506103b8565b505050565b80471015610307576040517f08c379a00000000000000000000000000000000000000000000000000000000081526004016102fe9061082b565b60405180910390fd5b60008273ffffffffffffffffffffffffffffffffffffffff168260405161032d9061087c565b60006040518083038185875af1925050503d806000811461036a576040519150601f19603f3d011682016040523d82523d6000602084013e61036f565b606091505b50509050806103b3576040517f08c379a00000000000000000000000000000000000000000000000000000000081526004016103aa90610903565b60405180910390fd5b505050565b600061041a826040518060400160405280602081526020017f5361666545524332303a206c6f772d6c6576656c2063616c6c206661696c65648152508573ffffffffffffffffffffffffffffffffffffffff166104809092919063ffffffff16565b905060008151148061043c57508080602001905181019061043b9190610960565b5b61047b576040517f08c379a0000000000000000000000000000000000000000000000000000000008152600401610472906109ff565b60405180910390fd5b505050565b606061048f8484600085610498565b90509392505050565b6060824710156104dd576040517f08c379a00000000000000000000000000000000000000000000000000000000081526004016104d490610a91565b60405180910390fd5b6000808673ffffffffffffffffffffffffffffffffffffffff1685876040516105069190610b17565b60006040518083038185875af1925050503d8060008114610543576040519150601f19603f3d011682016040523d82523d6000602084013e610548565b606091505b509150915061055987838387610565565b92505050949350505050565b606083156105c75760008351036105bf5761057f856105da565b6105be576040517f08c379a00000000000000000000000000000000000000000000000000000000081526004016105b590610b7a565b60405180910390fd5b5b8290506105d2565b6105d183836105fd565b5b949350505050565b6000808273ffffffffffffffffffffffffffffffffffffffff163b119050919050565b6000825111156106105781518083602001fd5b806040517f08c379a00000000000000000000000000000000000000000000000000000000081526004016106449190610bef565b60405180910390fd5b6000819050919050565b6106608161064d565b82525050565b600060208201905061067b6000830184610657565b92915050565b600082825260208201905092915050565b7f6f6e6c7947656c61746f52656c61790000000000000000000000000000000000600082015250565b60006106c8600f83610681565b91506106d382610692565b602082019050919050565b600060208201905081810360008301526106f7816106bb565b9050919050565b7f4e487b7100000000000000000000000000000000000000000000000000000000600052601160045260246000fd5b60006107388261064d565b91507fffffffffffffffffffffffffffffffffffffffffffffffffffffffffffffffff820361076a576107696106fe565b5b600182019050919050565b600073ffffffffffffffffffffffffffffffffffffffff82169050919050565b60006107a082610775565b9050919050565b6107b081610795565b82525050565b60006040820190506107cb60008301856107a7565b6107d86020830184610657565b9392505050565b7f416464726573733a20696e73756666696369656e742062616c616e6365000000600082015250565b6000610815601d83610681565b9150610820826107df565b602082019050919050565b6000602082019050818103600083015261084481610808565b9050919050565b600081905092915050565b50565b600061086660008361084b565b915061087182610856565b600082019050919050565b600061088782610859565b9150819050919050565b7f416464726573733a20756e61626c6520746f2073656e642076616c75652c207260008201527f6563697069656e74206d61792068617665207265766572746564000000000000602082015250565b60006108ed603a83610681565b91506108f882610891565b604082019050919050565b6000602082019050818103600083015261091c816108e0565b9050919050565b600080fd5b60008115159050919050565b61093d81610928565b811461094857600080fd5b50565b60008151905061095a81610934565b92915050565b60006020828403121561097657610975610923565b5b60006109848482850161094b565b91505092915050565b7f5361666545524332303a204552433230206f7065726174696f6e20646964206e60008201527f6f74207375636365656400000000000000000000000000000000000000000000602082015250565b60006109e9602a83610681565b91506109f48261098d565b604082019050919050565b60006020820190508181036000830152610a18816109dc565b9050919050565b7f416464726573733a20696e73756666696369656e742062616c616e636520666f60008201527f722063616c6c0000000000000000000000000000000000000000000000000000602082015250565b6000610a7b602683610681565b9150610a8682610a1f565b604082019050919050565b60006020820190508181036000830152610aaa81610a6e565b9050919050565b600081519050919050565b60005b83811015610ada578082015181840152602081019050610abf565b60008484015250505050565b6000610af182610ab1565b610afb818561084b565b9350610b0b818560208601610abc565b80840191505092915050565b6000610b238284610ae6565b915081905092915050565b7f416464726573733a2063616c6c20746f206e6f6e2d636f6e7472616374000000600082015250565b6000610b64601d83610681565b9150610b6f82610b2e565b602082019050919050565b60006020820190508181036000830152610b9381610b57565b9050919050565b600081519050919050565b6000601f19601f8301169050919050565b6000610bc182610b9a565b610bcb8185610681565b9350610bdb818560208601610abc565b610be481610ba5565b840191505092915050565b60006020820190508181036000830152610c098184610bb6565b90509291505056fea26469706673582212204a592a0536247ad120186766beb7fe5bfc6cde44b91d28573073f18f445d5b3764736f6c63430008120033",
  "devdoc": {
    "kind": "dev",
    "methods": {},
    "version": 1
  },
  "userdoc": {
    "kind": "user",
    "methods": {},
    "version": 1
  },
  "storageLayout": {
    "storage": [
      {
        "astId": 2267,
        "contract": "contracts/CounterFeeCollector.sol:CounterFeeCollector",
        "label": "count",
        "offset": 0,
        "slot": "0",
        "type": "t_uint256"
      }
    ],
    "types": {
      "t_uint256": {
        "encoding": "inplace",
        "label": "uint256",
        "numberOfBytes": "32"
      }
    }
  }
}