{
  "address": "0x5FC8d32690cc91D4c39d9d3abcBD16989F875707",
  "abi": [
    {
      "inputs": [
        {
          "internalType": "address",
          "name": "",
          "type": "address"
        }
      ],
      "name": "count",
      "outputs": [
        {
          "internalType": "uint256",
          "name": "",
          "type": "uint256"
        }
      ],
      "stateMutability": "view",
      "type": "function"
    },
    {
      "inputs": [],
      "name": "inc",
      "outputs": [],
      "stateMutability": "nonpayable",
      "type": "function"
    }
  ],
  "transactionHash": "0xaf62fdc780e3a77fc993dd8644388b982ce8cee6ce2753a120f62b5b27de6203",
  "args": [],
  "numDeployments": 1,
  "solcInputHash": "1a6b600fbdf1e292a35fb5d587ae864e",
  "bytecode": "0x608060405234801561001057600080fd5b50610d3d806100206000396000f3fe608060405234801561001057600080fd5b50600436106100365760003560e01c806305d85eda1461003b578063371303c01461006b575b600080fd5b6100556004803603810190610050919061074d565b610075565b6040516100629190610793565b60405180910390f35b61007361008d565b005b60006020528060005260406000206000915090505481565b61009633610157565b6100d5576040517f08c379a00000000000000000000000000000000000000000000000000000000081526004016100cc9061080b565b60405180910390fd5b6000806100e0610204565b73ffffffffffffffffffffffffffffffffffffffff1673ffffffffffffffffffffffffffffffffffffffff168152602001908152602001600020600081546101279061085a565b9190508190555061015573eeeeeeeeeeeeeeeeeeeeeeeeeeeeeeeeeeeeeeee61014e610227565b6064610236565b565b600061014446148061016a575061011846145b156101b9577322dcc39b2ac376862183dd35a1664798dafc7da673ffffffffffffffffffffffffffffffffffffffff168273ffffffffffffffffffffffffffffffffffffffff161490506101ff565b73b539068872230f20456cf38ec52ef2f91af4ae4973ffffffffffffffffffffffffffffffffffffffff168273ffffffffffffffffffffffffffffffffffffffff161490505b919050565b600061020f33610157565b6102195733610222565b6102216102bd565b5b905090565b60006102316102cc565b905090565b73eeeeeeeeeeeeeeeeeeeeeeeeeeeeeeeeeeeeeeee73ffffffffffffffffffffffffffffffffffffffff168373ffffffffffffffffffffffffffffffffffffffff16146102ad576102a882828573ffffffffffffffffffffffffffffffffffffffff166102db9092919063ffffffff16565b6102b8565b6102b78282610361565b5b505050565b6000601436033560601c905090565b6000602836033560601c905090565b61035c8363a9059cbb60e01b84846040516024016102fa9291906108b1565b604051602081830303815290604052907bffffffffffffffffffffffffffffffffffffffffffffffffffffffff19166020820180517bffffffffffffffffffffffffffffffffffffffffffffffffffffffff8381831617835250505050610455565b505050565b804710156103a4576040517f08c379a000000000000000000000000000000000000000000000000000000000815260040161039b90610926565b60405180910390fd5b60008273ffffffffffffffffffffffffffffffffffffffff16826040516103ca90610977565b60006040518083038185875af1925050503d8060008114610407576040519150601f19603f3d011682016040523d82523d6000602084013e61040c565b606091505b5050905080610450576040517f08c379a0000000000000000000000000000000000000000000000000000000008152600401610447906109fe565b60405180910390fd5b505050565b60006104b7826040518060400160405280602081526020017f5361666545524332303a206c6f772d6c6576656c2063616c6c206661696c65648152508573ffffffffffffffffffffffffffffffffffffffff1661051d9092919063ffffffff16565b90506000815114806104d95750808060200190518101906104d89190610a56565b5b610518576040517f08c379a000000000000000000000000000000000000000000000000000000000815260040161050f90610af5565b60405180910390fd5b505050565b606061052c8484600085610535565b90509392505050565b60608247101561057a576040517f08c379a000000000000000000000000000000000000000000000000000000000815260040161057190610b87565b60405180910390fd5b6000808673ffffffffffffffffffffffffffffffffffffffff1685876040516105a39190610c0d565b60006040518083038185875af1925050503d80600081146105e0576040519150601f19603f3d011682016040523d82523d6000602084013e6105e5565b606091505b50915091506105f687838387610602565b92505050949350505050565b6060831561066457600083510361065c5761061c85610677565b61065b576040517f08c379a000000000000000000000000000000000000000000000000000000000815260040161065290610c70565b60405180910390fd5b5b82905061066f565b61066e838361069a565b5b949350505050565b6000808273ffffffffffffffffffffffffffffffffffffffff163b119050919050565b6000825111156106ad5781518083602001fd5b806040517f08c379a00000000000000000000000000000000000000000000000000000000081526004016106e19190610ce5565b60405180910390fd5b600080fd5b600073ffffffffffffffffffffffffffffffffffffffff82169050919050565b600061071a826106ef565b9050919050565b61072a8161070f565b811461073557600080fd5b50565b60008135905061074781610721565b92915050565b600060208284031215610763576107626106ea565b5b600061077184828501610738565b91505092915050565b6000819050919050565b61078d8161077a565b82525050565b60006020820190506107a86000830184610784565b92915050565b600082825260208201905092915050565b7f6f6e6c7947656c61746f52656c61794552433237373100000000000000000000600082015250565b60006107f56016836107ae565b9150610800826107bf565b602082019050919050565b60006020820190508181036000830152610824816107e8565b9050919050565b7f4e487b7100000000000000000000000000000000000000000000000000000000600052601160045260246000fd5b60006108658261077a565b91507fffffffffffffffffffffffffffffffffffffffffffffffffffffffffffffffff82036108975761089661082b565b5b600182019050919050565b6108ab8161070f565b82525050565b60006040820190506108c660008301856108a2565b6108d36020830184610784565b9392505050565b7f416464726573733a20696e73756666696369656e742062616c616e6365000000600082015250565b6000610910601d836107ae565b915061091b826108da565b602082019050919050565b6000602082019050818103600083015261093f81610903565b9050919050565b600081905092915050565b50565b6000610961600083610946565b915061096c82610951565b600082019050919050565b600061098282610954565b9150819050919050565b7f416464726573733a20756e61626c6520746f2073656e642076616c75652c207260008201527f6563697069656e74206d61792068617665207265766572746564000000000000602082015250565b60006109e8603a836107ae565b91506109f38261098c565b604082019050919050565b60006020820190508181036000830152610a17816109db565b9050919050565b60008115159050919050565b610a3381610a1e565b8114610a3e57600080fd5b50565b600081519050610a5081610a2a565b92915050565b600060208284031215610a6c57610a6b6106ea565b5b6000610a7a84828501610a41565b91505092915050565b7f5361666545524332303a204552433230206f7065726174696f6e20646964206e60008201527f6f74207375636365656400000000000000000000000000000000000000000000602082015250565b6000610adf602a836107ae565b9150610aea82610a83565b604082019050919050565b60006020820190508181036000830152610b0e81610ad2565b9050919050565b7f416464726573733a20696e73756666696369656e742062616c616e636520666f60008201527f722063616c6c0000000000000000000000000000000000000000000000000000602082015250565b6000610b716026836107ae565b9150610b7c82610b15565b604082019050919050565b60006020820190508181036000830152610ba081610b64565b9050919050565b600081519050919050565b60005b83811015610bd0578082015181840152602081019050610bb5565b60008484015250505050565b6000610be782610ba7565b610bf18185610946565b9350610c01818560208601610bb2565b80840191505092915050565b6000610c198284610bdc565b915081905092915050565b7f416464726573733a2063616c6c20746f206e6f6e2d636f6e7472616374000000600082015250565b6000610c5a601d836107ae565b9150610c6582610c24565b602082019050919050565b60006020820190508181036000830152610c8981610c4d565b9050919050565b600081519050919050565b6000601f19601f8301169050919050565b6000610cb782610c90565b610cc181856107ae565b9350610cd1818560208601610bb2565b610cda81610c9b565b840191505092915050565b60006020820190508181036000830152610cff8184610cac565b90509291505056fea2646970667358221220b7f68a09f48654ac09ad8790c56aaf3a7b8e931288b21a65bb682ac7dbaf72e964736f6c63430008120033",
  "devdoc": {
    "kind": "dev",
    "methods": {},
    "version": 1
  },
  "userdoc": {
    "kind": "user",
    "methods": {},
    "version": 1
  },
  "storageLayout": {
    "storage": [
      {
        "astId": 2337,
        "contract": "contracts/CounterFeeCollectorERC2771.sol:CounterFeeCollectorERC2771",
        "label": "count",
        "offset": 0,
        "slot": "0",
        "type": "t_mapping(t_address,t_uint256)"
      }
    ],
    "types": {
      "t_address": {
        "encoding": "inplace",
        "label": "address",
        "numberOfBytes": "20"
      },
      "t_mapping(t_address,t_uint256)": {
        "encoding": "mapping",
        "key": "t_address",
        "label": "mapping(address => uint256)",
        "numberOfBytes": "32",
        "value": "t_uint256"
      },
      "t_uint256": {
        "encoding": "inplace",
        "label": "uint256",
        "numberOfBytes": "32"
      }
    }
  }
}