{
  "address": "0x5FbDB2315678afecb367f032d93F642f64180aa3",
  "abi": [
    {
      "inputs": [],
      "name": "count",
      "outputs": [
        {
          "internalType": "uint256",
          "name": "",
          "type": "uint256"
        }
      ],
      "stateMutability": "view",
      "type": "function"
    },
    {
      "inputs": [],
      "name": "inc",
      "outputs": [],
      "stateMutability": "nonpayable",
      "type": "function"
    }
  ],
  "transactionHash": "0x874deea434134874ddab483d011d4d4bdbdb098843cf20c78b7fb2fe5c121fed",
  "args": [],
  "numDeployments": 1,
  "solcInputHash": "1a6b600fbdf1e292a35fb5d587ae864e",
  "bytecode": "0x608060405234801561001057600080fd5b50610161806100206000396000f3fe608060405234801561001057600080fd5b50600436106100365760003560e01c806306661abd1461003b578063371303c014610059575b600080fd5b610043610063565b6040516100509190610099565b60405180910390f35b610061610069565b005b60005481565b6000808154610077906100e3565b91905081905550565b6000819050919050565b61009381610080565b82525050565b60006020820190506100ae600083018461008a565b92915050565b7f4e487b7100000000000000000000000000000000000000000000000000000000600052601160045260246000fd5b60006100ee82610080565b91507fffffffffffffffffffffffffffffffffffffffffffffffffffffffffffffffff82036101205761011f6100b4565b5b60018201905091905056fea26469706673582212200c301ebd11afd086d14e4867558f1635a81452fa77299fb08b50dccd79f7a4fc64736f6c63430008120033",
  "devdoc": {
    "kind": "dev",
    "methods": {},
    "version": 1
  },
  "userdoc": {
    "kind": "user",
    "methods": {},
    "version": 1
  },
  "storageLayout": {
    "storage": [
      {
        "astId": 2161,
        "contract": "contracts/Counter.sol:Counter",
        "label": "count",
        "offset": 0,
        "slot": "0",
        "type": "t_uint256"
      }
    ],
    "types": {
      "t_uint256": {
        "encoding": "inplace",
        "label": "uint256",
        "numberOfBytes": "32"
      }
    }
  }
}