{
  "address": "0x9fE46736679d2D9a65F0992F2272dE9f3c7fa6e0",
  "abi": [
    {
      "inputs": [
        {
          "internalType": "address",
          "name": "",
          "type": "address"
        }
      ],
      "name": "count",
      "outputs": [
        {
          "internalType": "uint256",
          "name": "",
          "type": "uint256"
        }
      ],
      "stateMutability": "view",
      "type": "function"
    },
    {
      "inputs": [],
      "name": "inc",
      "outputs": [],
      "stateMutability": "nonpayable",
      "type": "function"
    }
  ],
  "transactionHash": "0xd463d684496c03e88d3b2e4323220683345396f04e14debfe362a7d16ef63042",
  "args": [],
  "numDeployments": 1,
  "solcInputHash": "1a6b600fbdf1e292a35fb5d587ae864e",
  "bytecode": "0x608060405234801561001057600080fd5b50610da3806100206000396000f3fe608060405234801561001057600080fd5b50600436106100365760003560e01c806305d85eda1461003b578063371303c01461006b575b600080fd5b610055600480360381019061005091906107b3565b610075565b60405161006291906107f9565b60405180910390f35b61007361008d565b005b60006020528060005260406000206000915090505481565b61009633610138565b6100d5576040517f08c379a00000000000000000000000000000000000000000000000000000000081526004016100cc90610871565b60405180910390fd5b6000806100e06101e5565b73ffffffffffffffffffffffffffffffffffffffff1673ffffffffffffffffffffffffffffffffffffffff16815260200190815260200160002060008154610127906108c0565b91905081905550610136610208565b565b600061014446148061014b575061011846145b1561019a577322dcc39b2ac376862183dd35a1664798dafc7da673ffffffffffffffffffffffffffffffffffffffff168273ffffffffffffffffffffffffffffffffffffffff161490506101e0565b73b539068872230f20456cf38ec52ef2f91af4ae4973ffffffffffffffffffffffffffffffffffffffff168273ffffffffffffffffffffffffffffffffffffffff161490505b919050565b60006101f033610138565b6101fa5733610203565b61020261024a565b5b905090565b610248610213610259565b61021b610268565b610223610277565b73ffffffffffffffffffffffffffffffffffffffff166102869092919063ffffffff16565b565b6000601436033560601c905090565b6000610263610317565b905090565b6000610272610326565b905090565b6000610281610332565b905090565b60008103156103125773eeeeeeeeeeeeeeeeeeeeeeeeeeeeeeeeeeeeeeee73ffffffffffffffffffffffffffffffffffffffff168373ffffffffffffffffffffffffffffffffffffffff16146103065761030182828573ffffffffffffffffffffffffffffffffffffffff166103419092919063ffffffff16565b610311565b61031082826103c7565b5b5b505050565b6000605c36033560601c905090565b60006034360335905090565b6000604836033560601c905090565b6103c28363a9059cbb60e01b8484604051602401610360929190610917565b604051602081830303815290604052907bffffffffffffffffffffffffffffffffffffffffffffffffffffffff19166020820180517bffffffffffffffffffffffffffffffffffffffffffffffffffffffff83818316178352505050506104bb565b505050565b8047101561040a576040517f08c379a00000000000000000000000000000000000000000000000000000000081526004016104019061098c565b60405180910390fd5b60008273ffffffffffffffffffffffffffffffffffffffff1682604051610430906109dd565b60006040518083038185875af1925050503d806000811461046d576040519150601f19603f3d011682016040523d82523d6000602084013e610472565b606091505b50509050806104b6576040517f08c379a00000000000000000000000000000000000000000000000000000000081526004016104ad90610a64565b60405180910390fd5b505050565b600061051d826040518060400160405280602081526020017f5361666545524332303a206c6f772d6c6576656c2063616c6c206661696c65648152508573ffffffffffffffffffffffffffffffffffffffff166105839092919063ffffffff16565b905060008151148061053f57508080602001905181019061053e9190610abc565b5b61057e576040517f08c379a000000000000000000000000000000000000000000000000000000000815260040161057590610b5b565b60405180910390fd5b505050565b6060610592848460008561059b565b90509392505050565b6060824710156105e0576040517f08c379a00000000000000000000000000000000000000000000000000000000081526004016105d790610bed565b60405180910390fd5b6000808673ffffffffffffffffffffffffffffffffffffffff1685876040516106099190610c73565b60006040518083038185875af1925050503d8060008114610646576040519150601f19603f3d011682016040523d82523d6000602084013e61064b565b606091505b509150915061065c87838387610668565b92505050949350505050565b606083156106ca5760008351036106c257610682856106dd565b6106c1576040517f08c379a00000000000000000000000000000000000000000000000000000000081526004016106b890610cd6565b60405180910390fd5b5b8290506106d5565b6106d48383610700565b5b949350505050565b6000808273ffffffffffffffffffffffffffffffffffffffff163b119050919050565b6000825111156107135781518083602001fd5b806040517f08c379a00000000000000000000000000000000000000000000000000000000081526004016107479190610d4b565b60405180910390fd5b600080fd5b600073ffffffffffffffffffffffffffffffffffffffff82169050919050565b600061078082610755565b9050919050565b61079081610775565b811461079b57600080fd5b50565b6000813590506107ad81610787565b92915050565b6000602082840312156107c9576107c8610750565b5b60006107d78482850161079e565b91505092915050565b6000819050919050565b6107f3816107e0565b82525050565b600060208201905061080e60008301846107ea565b92915050565b600082825260208201905092915050565b7f6f6e6c7947656c61746f52656c61794552433237373100000000000000000000600082015250565b600061085b601683610814565b915061086682610825565b602082019050919050565b6000602082019050818103600083015261088a8161084e565b9050919050565b7f4e487b7100000000000000000000000000000000000000000000000000000000600052601160045260246000fd5b60006108cb826107e0565b91507fffffffffffffffffffffffffffffffffffffffffffffffffffffffffffffffff82036108fd576108fc610891565b5b600182019050919050565b61091181610775565b82525050565b600060408201905061092c6000830185610908565b61093960208301846107ea565b9392505050565b7f416464726573733a20696e73756666696369656e742062616c616e6365000000600082015250565b6000610976601d83610814565b915061098182610940565b602082019050919050565b600060208201905081810360008301526109a581610969565b9050919050565b600081905092915050565b50565b60006109c76000836109ac565b91506109d2826109b7565b600082019050919050565b60006109e8826109ba565b9150819050919050565b7f416464726573733a20756e61626c6520746f2073656e642076616c75652c207260008201527f6563697069656e74206d61792068617665207265766572746564000000000000602082015250565b6000610a4e603a83610814565b9150610a59826109f2565b604082019050919050565b60006020820190508181036000830152610a7d81610a41565b9050919050565b60008115159050919050565b610a9981610a84565b8114610aa457600080fd5b50565b600081519050610ab681610a90565b92915050565b600060208284031215610ad257610ad1610750565b5b6000610ae084828501610aa7565b91505092915050565b7f5361666545524332303a204552433230206f7065726174696f6e20646964206e60008201527f6f74207375636365656400000000000000000000000000000000000000000000602082015250565b6000610b45602a83610814565b9150610b5082610ae9565b604082019050919050565b60006020820190508181036000830152610b7481610b38565b9050919050565b7f416464726573733a20696e73756666696369656e742062616c616e636520666f60008201527f722063616c6c0000000000000000000000000000000000000000000000000000602082015250565b6000610bd7602683610814565b9150610be282610b7b565b604082019050919050565b60006020820190508181036000830152610c0681610bca565b9050919050565b600081519050919050565b60005b83811015610c36578082015181840152602081019050610c1b565b60008484015250505050565b6000610c4d82610c0d565b610c5781856109ac565b9350610c67818560208601610c18565b80840191505092915050565b6000610c7f8284610c42565b915081905092915050565b7f416464726573733a2063616c6c20746f206e6f6e2d636f6e7472616374000000600082015250565b6000610cc0601d83610814565b9150610ccb82610c8a565b602082019050919050565b60006020820190508181036000830152610cef81610cb3565b9050919050565b600081519050919050565b6000601f19601f8301169050919050565b6000610d1d82610cf6565b610d278185610814565b9350610d37818560208601610c18565b610d4081610d01565b840191505092915050565b60006020820190508181036000830152610d658184610d12565b90509291505056fea26469706673582212203d8e57d923d6b0395d2ba0066b0defb10f80a1cd6ce341a2d3c619f35c333f0064736f6c63430008120033",
  "devdoc": {
    "kind": "dev",
    "methods": {},
    "version": 1
  },
  "userdoc": {
    "kind": "user",
    "methods": {},
    "version": 1
  },
  "storageLayout": {
    "storage": [
      {
        "astId": 2200,
        "contract": "contracts/CounterContextERC2771.sol:CounterContextERC2771",
        "label": "count",
        "offset": 0,
        "slot": "0",
        "type": "t_mapping(t_address,t_uint256)"
      }
    ],
    "types": {
      "t_address": {
        "encoding": "inplace",
        "label": "address",
        "numberOfBytes": "20"
      },
      "t_mapping(t_address,t_uint256)": {
        "encoding": "mapping",
        "key": "t_address",
        "label": "mapping(address => uint256)",
        "numberOfBytes": "32",
        "value": "t_uint256"
      },
      "t_uint256": {
        "encoding": "inplace",
        "label": "uint256",
        "numberOfBytes": "32"
      }
    }
  }
}